:020000040800F2
:10000000D01A0020010002087B19020825190208F5
:1000100079190208A5010208193902080000000038
:100020000000000000000000000000008B19020822
:10003000ED01020800000000891902088D1902086C
:100040001B0002081B0002081B0002081B0002081C
:100050001B0002081B0002081B0002081B0002080C
:100060001B0002081B0002081B0002081B000208FC
:100070001B0002081B0002081B0002081B000208EC
:100080001B0002081B0002081B0002081B000208DC
:100090001B0002081B0002081B0002081B000208CC
:1000A0001B0002081B0002081B0002081B000208BC
:1000B0001B0002081B0002081B0002081B000208AC
:1000C0001B0002081B0002081B0002081B0002089C
:1000D0001B0002081B0002081B0002081B0002088C
:1000E0001B0002081B0002081B0002081B0002087C
:1000F0001B0002081B0002081B0002081B0002086C
:100100001B0002081B0002081B0002081B0002085B
:100110001B0002081B0002081B0002081B0002084B
:100120001B0002081B0002081B0002081B0002083B
:100130001B0002081B0002081B0002081B0002082B
:100140001B0002081B0002081B0002087D190208A0
:100150001B0002081B0002081B0002081B0002080B
:100160001B0002081B0002081B0002081B000208FB
:100170001B0002081B0002081B0002080000000010
:100180001B0002081B000208DFF80CD000F006F884
:1001900000480047514A0208D01A0020064C074D7B
:1001A00006E0E06840F0010394E807009847103447
:1001B000AC42F6D3FFF7ECFFE001000800020008B4
:1001C00002E008C8121F08C1002AFAD17047704720
:1001D000002001E001C1121F002AFBD1704700007E
:1001E000000200080000002050000000C0010008CC
:1001F0005002000850000020801A0000D0010008C2
:1002000000000000000000000100000001000100EB
:1002100001010101010001000100010101010000D3
:1002200001000000100000000024F400A04F0208AC
:1002300008000000B92302086B230208E522020827
:10024000BD240208512A020800000000000000003E
:020000040802F0
:100000000648804706480047FEE7FEE7FEE7FEE7B2
:10001000FEE7FEE7FEE7FEE7FEE7FEE791190208CE
:10002000890100082DE9F05F0546002092469B46B5
:1000300088460646814640241BE0284641464746FE
:10004000224600F053F853465A46C01A914110D345
:1000500011461846224600F03AF82D1A67EB0108BF
:100060004F4622460120002100F031F817EB00092D
:100070004E41201EA4F10104DFDC484631462A46E9
:100080004346BDE8F09F40EA01039B0703D009E027
:1000900008C9121F08C0042AFAD203E011F8013B74
:1000A00000F8013B521EF9D27047D2B201E000F8CD
:1000B000012B491EFBD270470022F6E710B513460C
:1000C0000A4604461946FFF7F0FF204610BD202AD5
:1000D00004DB203A00FA02F1002070479140C2F19F
:1000E000200320FA03F3194390407047202A04DBD1
:1000F000203A21FA02F00021704721FA02F3D040A1
:10010000C2F12002914008431946704780B500F0C3
:1001100087FB6421B0FBF1F00921B0FBF1F101EBA9
:10012000C101401A06498A7D02EBC202114408440B
:1001300002791B484FF48051BDE8804000F064BB59
:100140000800002010B586B00020EB4901900A6835
:10015000134C42F040020A600A6802F04002019229
:10016000019A0090086840F02000086008680321A8
:1001700000F02000009001200290CDE903014FF42F
:1001800080500190009801A9204600F06FFA2046A7
:100190004FF48051012200F037FB06B010BD00BFC4
:1001A00000180240FEE700F28441002200230F2BDA
:1001B00003D041F823200133F9E700F5077100224D
:1001C0000023B3F5007F02D0CA540133F9E70021C0
:1001D0004FF4807201230170A0F8012003834023B3
:1001E0008371C0F81C24C0F8C41470477047052000
:1001F00001F09AFBFFF78AFFFCE70022AFF30080D3
:10020000B0B50E4C0346A07B012884BF0120B0BDD1
:10021000A57B00206055A57B04EB85056B60A37B67
:1002200023441A73A27B531CA37342F63A733032F1
:10023000C870A1F801300A70B0BD00BF00050020F1
:10024000DE4A0329136823F4407313604FF44073AC
:1002500038BF0B02116819431160116821F0F801D1
:100260001160116841EAC00040F00200106010689F
:1002700040F48030106070471348016889050FD53D
:10028000016821F400710160016841F400610160BE
:10029000016821F400610160016841F400710160AE
:1002A000016849050FD5016821F48061016001688A
:1002B00041F480510160016821F4805101600168BE
:1002C00041F4806101607047003C0240FEB500F0DF
:1002D00011F80220CDE903000620029000200090D2
:1002E000684605A900F01CF9002818BF012006B0D7
:1002F00080BD000080B500F0A5F96C48F3210160D5
:1003000080BD00BF2DE9F0410646114814460D4658
:10031000002780460EE055F82720022031460023B2
:1003200000F04EF970B955F82700316881420CD1C0
:100330000137043600204645414698BFA742EAD31C
:10034000BDE8F0810320BDE8F0810220BDE8F08126
:10035000FBFF0F08BA490A6822F440720A600A6873
:1003600042F004020A600A6842EA002040F4803049
:1003700008607047B24A136823F44073136013682F
:100380001360136843F0010313600170704700BFEE
:1003900010B5AB490C6824F440740C600C6844F44C
:1003A00040740C600C6844F001040C600260BFF300
:1003B0006F8F436010BD00BFA14A136823F44073E0
:1003C0001360136843F480731360136843F00103F0
:1003D00013600180704700BF994A136823F440738B
:1003E0001360136843F400731360136843F0010350
:1003F00013600160704700BF2C480168C90606D52C
:100400008E49CA6942F01002CA6110210160016878
:10041000890606D58949CA6942F00802CA612021C5
:1004200001600168490606D58449CA6942F00402A0
:10043000CA61402101600168090606D57F49CA6981
:1004400042F00202CA61802101600168890706D575
:100450007A49CA6942F02002CA61022101607047EC
:10046000F8B5044675480021104EC16100F0D8F976
:100470000546671C3068C00309D5002FFAD024B1A7
:1004800000F0CEF9401BA042F4D90320F8BD30683B
:10049000C0071CBF01203060306810F0F20F03D09D
:1004A000FFF7AAFF0120F8BD0020F8BD0C3C024078
:1004B0000E480F4A01681140B1F1005F18BF704744
:1004C00041680C4AC2E90011006880F308880A48B4
:1004D0004FF4801101600021416081600161416140
:1004E000EFF3108072B65068004700BF00000408A8
:1004F0000000FE2F6800002030380240B0B50446EE
:1005000000F08EF905460548611C007818BF0444C8
:1005100000F086F9401BA042FAD3B0BD20000020B5
:100520002DE9F843DFF81481054698F818000128F2
:1005300001D102263EE0012088F818004CF250302C
:100540008946FFF78DFF064688BB4FF0FF30C9F89C
:10055000000028683A4C01280CD1287CFFF7FAFEED
:100560004CF25030FFF77CFF0646206820F0040074
:1005700020601AE0A8680746E9680844874210D25C
:10058000297C3846FFF75CFE4CF25030FFF768FFDD
:100590000646206820F0FA00206026B9A8680137D6
:1005A000EAE7002601E0C9F80070FFF765FE0020C9
:1005B00088F818003046BDE8F88300BF103C0240C0
:1005C0002DE9F041DFF87480074698F818000128FB
:1005D00004BF0220BDE8F081012088F818004CF229
:1005E00050301E4614460D46FFF73AFF08BB022F57
:1005F00007D0012F0AD077B9E1B22846FFF7BAFE3B
:100600000EE028462146FFF7E7FE09E0A1B22846A2
:10061000FFF7D2FE04E0284622463346FFF7B8FE35
:100620004CF25030FFF71CFF05490A6822F0010226
:100630000A60002188F81810BDE8F081AC0C002099
:10064000103C02400648C168B1F1FF3FC4BF002022
:1006500070470449016004490160C068C00F7047D9
:10066000043C024023016745AB89EFCD2DE9FC4FE7
:100670005F4A082490425F4A08BF072402444FEAB9
:10068000B223072B38BF4FEAB2244FF0010B4FF0D3
:1006900000084FF0000E00220094BEF1200F08BFAA
:1006A000BDE8FC8F0F680BFA02F6374200F093802A
:1006B0004F68122F00F295800BFA07F414F0061F12
:1006C00000F08F80032303FA0EF48368CD68A34300
:1006D00005FA0EF52B438360C7F30013456893407A
:1006E000B5432B436FEA040C4FEA420A4360C468E7
:1006F0008D6804EA0C0405FA0AF52C43C46047F03F
:100700001004122C12D108F01C040F2303FA04F574
:100710006FF0030303EA52070744D7F820900B69F0
:1007200029EA0505A3402B433B624F68036807F0A5
:10073000030403EA0C0304FA0AF423430360FB00F6
:1007400049D5002301932E4B2B4F1C461B6822F0EA
:10075000030543F4804323602368BC4603F48043CD
:1007600001933D44019F274F08F00C030F24B94625
:10077000EF599C4027EA0404009F07FA03F3234340
:1007800045F80930DCF800304D6843EA0604EF0311
:1007900058BF23EA0604CCF80040DCF80430AF036D
:1007A00043EA060458BF23EA0604CCF80440DCF808
:1007B0000830EF0243EA060458BF23EA06040F4B51
:1007C000CCF808401F461B68AD0243EA060458BF38
:1007D00023EA06043C6008F104080EF1020E01321F
:1007E0005BE7032303FA0EF46FEA040CF2467EE79C
:1007F000001C02400000FEBF003C01400C3C0140D8
:100800004438024008FCFFFF002A08BF0904816148
:100810007047000001480068000C7047002004E0A9
:1008200001480068704700BFCC0E0020D0F8C0021D
:1008300001F05ABBD0F8C00201F060BB006802F0C2
:1008400025BD006802F026BD01EB810100EBC1006F
:1008500090F85C00704701EB810100EBC100C06CB7
:10086000704710B5044690F8B802012804BF022072
:1008700010BD012084F8B802206802F01AFD0020A3
:1008800084F8B80210BD2DE9FF41044690F8B80283
:10089000012803D1022004B0BDE8F0810120DDF879
:1008A00030C0DDE90A7684F8B80201EB810004EB80
:1008B000C0004FF00008D50980F83D80A0F840C086
:1008C00080F8383080F83F6080F8391080F83C704C
:1008D00080F83B5002F07F0580F83A502068CDE95F
:1008E0000076CDF808C002F025FD84F8B88204B087
:1008F000BDE8F081704700002DE9F04301EB810471
:1009000000EBC40585F83F3085F83B20DDE9077E24
:10091000DDF8248005F1420905F1380C1FB10224ED
:1009200089F8004005E00A9E032489F8004085F814
:100930003D60032B19D8DFE803F00615020262B10F
:1009400095F850200BE082B9012F0ED105F151022C
:10095000B8F1000F19D0127801E095F851200AB1D2
:10096000022200E0002289F800200022C5E911E8F7
:10097000EA64A5F85C2085F839100168027C084615
:100980006146BDE8F04302F047BD01231370E7E77D
:100990002DE9FE4F06680446304602F086FC012829
:1009A00040F07683206802F064FE002800F0708337
:1009B000206802F05EFE01462068890244BF4FF4C1
:1009C0000011416102F055FE01462068C90244BF92
:1009D0004FF48011416102F04CFE0146206849014C
:1009E00044BF4FF08061416102F043FE0146206840
:1009F000890744BF0221416102F03BFE80000ED511
:100A000020684FF000514161D6F84004C00706D17C
:100A10002046FFF70FFF2068012102F00FFE20683B
:100A200002F027FEC00148D52568D5F840040290A1
:100A3000D5F840040190019820F02E000190029812
:100A4000800709D50298C00702D02046FFF7EEFEC6
:100A5000019840F0020001900298000723D5019808
:100A600040F0080001900298400703D4204600F0AF
:100A700047FC18E0A06902280BD12068029901F414
:100A8000C021B1F5802F14BF0121022102F0D6FD53
:100A900006E0E068012804BF4EF66020C5F80404B3
:100AA000204600F031FC0298800603D5019840F002
:100AB000200001900198C5F84004206802F0D9FD9B
:100AC000000701D4206805E0204600F024FC2068DF
:100AD0000821416102F0CDFD01462068890140F105
:100AE000968202F094FC814606F5A0674FF40075EB
:100AF0004FF00008A068804580F0858208F00F0064
:100B000029FA00F0C00700F0F88120685FFA88F643
:100B100000EB461101F5A16B01F5A06A3A68D1F826
:100B20000815120401F004014AD4002972D1DBF83F
:100B30000010890600F18280DBF80010490600F100
:100B4000AE80DBF80010890500F14E81DBF8001063
:100B5000C90740F09D81DBF80010090700F1D18141
:100B6000DBF80010C90600F1F581DBF8001009067A
:100B700000F11082DBF80010490500F11C82DBF85F
:100B80000000800740F1B981DAF80C0020F0020083
:100B9000CAF80C0006EB860004EBC00090F85D106C
:100BA0000139072900F28981DFE811F01B02870172
:100BB000080008008A010D0187010D01022289E168
:100BC00091BBDBF80010C90554D4DBF8001089068E
:100BD0007CD4DBF80010090700F10D81DBF8001070
:100BE000490576D5DAF80C1041F00201CAF80C106C
:100BF000314602F05EFB1020CAF8080006EB8600C2
:100C000004EBC000082180F85D104FF48060CAF842
:100C100008005EE00420CAF80800DAF80C0040F092
:100C20000200CAF80C0068E10420CAF80800DAF8EB
:100C30000C0040F00200CAF80C004AE02021CBF87A
:100C4000001006EB860104EBC1010A4612F83D3F95
:100C5000012B40F0528100231370022281F85C20A6
:100C6000DAF80C1041F00201CAF80C10314602F01B
:100C700020FB42E14FF48071CAF8081006EB8601B0
:100C800004EBC101072281F85D20DAF80C1041F075
:100C90000201CAF80C10314602F00BFB19E006EB1A
:100CA000860104EBC10100228A65012281F83D2002
:100CB000042281F85D20DAF80C1041F00201CAF834
:100CC0000C10314602F0F5FA4020BDE02020CBF8B0
:100CD0000000DBF80000800523D4DBF80000C0072B
:100CE0002CD1DBF80000800757D4DBF800000006A9
:100CF00000F19580DBF80000C00640F1FE8006EBB5
:100D0000860004EBC00090F83F10002900F00D8130
:100D1000022900F00A81032940F018810021816531
:100D20000AE1DAF80C0040F00200CAF80C00206872
:100D3000314602F0BEFACAF80850DEE0206950B130
:100D400006EB860004EBC000816CDAF810206FF32C
:100D5000DF42891AC16406EB8600012104EBC0055D
:100D60000020CBF80010A86585F85D1095F83F00CD
:100D7000032800F28480DFE800F0026A0274DAF8E7
:100D80000C00314640F00200CAF80C00206802F066
:100D900090FA1020CAF8080071E0DAF80C0020F090
:100DA0000200CAF80C0006EB860004EBC00090F8C5
:100DB0005D100139072900F28080DFE801F08A7EAA
:100DC0008E7E81048304816D02220131032988BF54
:100DD000042280F85C2088BF00218165DAF80000D9
:100DE000022161F39F707FE0DAF80C1041F00201FC
:100DF000CAF80C109CE7DAF80C10052241F0020149
:100E0000CAF80C101021CAF8081006EB860104EB92
:100E1000C10181F85D200821CAF808103BE7DAF823
:100E20000C00062140F00200CAF80C0006EB860018
:100E300004EBC00080F85D10816D01318165206890
:100E4000314602F036FA8020CAF8080055E0012049
:100E500085F85C0095F8500080F0010085F850009E
:100E600008E0012085F85C00DAF8000040F000504E
:100E7000CAF80000204631460122FFF73BFD95F8F5
:100E8000500080F0010085F850004FF4007534E008
:100E900006EB860104EBC1050021A965DAF80C1008
:100EA00041F00201CAF80C10314602F002FA0120AA
:100EB000CAF8080085F85D00E7E790F85C2015E0C7
:100EC000052207E0042280F85C20816D01318165F4
:100ED0000CE0012280F85C2008E0022280F85C200F
:100EE000DAF8000062F39F70CAF800000220CBF825
:100EF000000020463146FFF7FDFC203708F10108CD
:100F0000F8E50821CAF80810DAF80C1041F00201DF
:100F1000CAF80C10314602F0CCF906EB860004EB5F
:100F2000C000052180F85D10E7E700218165216997
:100F300061B9032180F85D10DAF80C00314640F009
:100F40000200CAF80C00206802F0B3F91020CBF8B8
:100F50000000D2E706EB860104EBC102114611F84E
:100F60003D3F032581F820500025C1F81B5023B9CF
:100F700092F83C200AB901220A70DAF80C1041F00C
:100F80000201CAF80C10314602F093F91020CAF899
:100F900008007AE7DAF80C1041F00201CAF80C10E8
:100FA000314602F086F906EB860004EBC00006210C
:100FB00080F85D1047E7DAF80C1041F00201CAF83A
:100FC0000C10314602F075F91020CAF8080006EB43
:100FD000860004EBC000082180F85D104FF48060AB
:100FE00032E7012280F85C2090F83F1001F0FE010A
:100FF00002297FF47BAF90F85110012281F00101AA
:1010000080F8511072E720684FF00071416102F0E2
:1010100030FBC0063CD52568A86920F01000A86107
:10102000286A00F4F011C0F30A16B1F5802F2AD116
:101030004EB300F00F0808EB880004EBC0094F46E0
:1010400057F8441FF9B12846324602F016FB3868BB
:10105000104A30443860D9F84C003044C9F84C008C
:1010600005EB4810D0F8101511420CD000F5A06027
:101070000168022262F39F71016099F8500080F0CC
:10108000010089F850002068816941F010018161F8
:10109000BDE8FE8F0000F81F00285ED02DE9F04F5C
:1010A0008BB00446056890F8B90228B9002084F88E
:1010B000B802204600F054F8032084F8B902E86B27
:1010C000C0055CBF00202061206802F081F8206824
:1010D00004F1140E0A90D4E90C5004F1040B9EE8BC
:1010E000C05004F1240A9BE80E089AE80007CDE9F5
:1010F000085002A8CDE900B680E8805005A880E835
:1011000000070A9802F014F82068012102F0DFFAC3
:10111000D4E9008004F1180E0A90D4E90C0104F11E
:1011200008079EE8205004F1240BCCCF9BE8000E6A
:10113000CDE9080102A8CDE9006780E8205005A8A4
:101140000A9980E8000E404602F00EFA012084F869
:10115000B90200200BB0BDE8F08F012070470000FD
:101160002DE9F04186B000686149884235D0B0F180
:10117000A04F40F0B98000255E4C0195206801A980
:1011800040F001002060206800F00100019001980B
:101190000095206840F080002060206800F080000A
:1011A00000900A2005900320CDE903500220029010
:1011B0004FF4C050019000984F48FFF757FA60680D
:1011C00040F0800060600095606940F4804060619C
:1011D0006069432400F480407CE04FF00008454EF5
:1011E000CDF804803068444D40F001003060306834
:1011F00001AC00F0010001900198CDF80480306846
:101200003E4F40F0020030603068214600F002009E
:1012100001900198CDF80480306840F004003060FF
:10122000306800F0040001900198CDF80480306827
:1012300040F080003060306800F08000019001983C
:10124000CDF80480306840F480703060306800F47D
:101250008070019001980A2005900320CDE9038059
:1012600002200290202001902846B84708200190D3
:1012700028462146B84743F62340019005F5806093
:101280002146B8470120019005F500602146B84786
:101290001020019005F5E0502146B8474FF400605A
:1012A000019005F500502146B847CDF80080306820
:1012B0004D2440F000503060306800F00050009045
:1012C0000098CDF80080306840F080403060306891
:1012D00000F080400090009820460521002200F098
:1012E00095F8204600F084F806B0BDE8F08100BF14
:1012F0000000044030380240000002406D06020841
:10130000D0F8C00200F080BED0F8C00200F080BE6D
:10131000006802F0BFB9D0F8C00200F039BE10B5C5
:10132000044690F8B802012804BF022010BD012035
:1013300084F8B802206801F084FF2068012101F0E0
:101340005DFF002084F8B80210BD10B5044690F887
:10135000B802012804BF022010BD012084F8B802A1
:10136000206802F0CBF9002084F8B80210BD00001C
:101370001D48034900780A6810440860704700BFA0
:10138000CC0E002080B50948016841F4007101606D
:10139000016841F480610160032000F053F80F20E0
:1013A00000F006F800F022F8002080BD003C02406A
:1013B00070B50D4E044630784FF47A71B1FBF0F001
:1013C00071490968B1FBF0F000F098FA01250F2C83
:1013D00008D838B94FF0FF3021460022002500F030
:1013E00015F87460284670BD20000020704700008A
:1013F000002808D400F01F01012202FA01F1024A7C
:10140000400942F82010704700E100E0B0B5134BEE
:101410004FF0FF351B68C3F30223DC1E83F0070384
:1014200038BF0024042B28BF042305FA03F3994393
:1014300005FA04F3A1409A431143BDE8B04002F01D
:101440006DBA00BF05494FF6FF030A681A4060F302
:101450000A22034810430860704700BF0CED00E00B
:101460000000FA052DE9F041002800F08680444B89
:101470000446D3F80004884600F00F00884207D2E3
:1014800083F80084D3F8000400F00F00404574D1C5
:101490002068810711D5410703D5996841F4E051CF
:1014A0009960010703D5996841F460419960A1688A
:1014B0009A6822F0F00211439960C0072BD060684F
:1014C000811E022903D21968890109D455E0012837
:1014D00003D11968890303D44FE0196889074CD5F3
:1014E00099681D4621F0030108439860FFF798F9B9
:1014F000064641F288376068A9682B4601F00C0166
:10150000B1EB800F07D0FFF78BF9801BB842F2D9FF
:101510000320BDE8F081D3F8000400F00F0040453F
:1015200007D983F80084D3F8000400F00F00404589
:1015300023D12068410705D5E1689A6822F4E0527A
:1015400011439960000706D52069996821F460412C
:1015500041EAC00098601C4600F01AF8A168094AE8
:10156000C1F30311515CC84007490860074800688F
:10157000FFF71EFF0020BDE8F0810120BDE8F081EB
:1015800000380240E04E020828000020240000201D
:1015900010B5134C606800F00C00082804D0042833
:1015A00014BF1048104810BD2268206802F03F02A6
:1015B00040020D485CBF42F20040C0F2F4002168D6
:1015C0000023C1F38811A0FB0101FEF72BFD216868
:1015D0000222C1F3014102EB4101B0FBF1F010BD69
:1015E000043802400024F40040787D012DE9FC41DC
:1015F000002800F0C88004460078F54EC00744D0AB
:10160000B06800F00C00042805D1306880033CD598
:101610006068D0BBB7E0B06800F00C00082802D1C9
:1016200070684002F1D46768B7F5803F06D0306833
:10163000B7F5A02F12D140F480203060306840F41C
:1016400080303060FFF7ECF80546306880031CD42A
:10165000FFF7E6F8401B6428F7D9D7E020F4803084
:101660003060306820F480203060FFF7D9F80546FC
:10167000002FEAD106E0FFF7D3F8411B03206429CD
:1016800000F2368130688003F5D4207880072CD5AD
:10169000B06810F00C0F07D0B06800F00C000828FC
:1016A00009D17068400206D43068800716D5E0681A
:1016B000012813D067E0E068002800F0C8808D485A
:1016C00001210160FFF7ACF805463068800705D4BA
:1016D000FFF7A6F8401B0228F7D997E02069316888
:1016E00021F0F80141EAC00030602078000720D5E1
:1016F0006169804871B10121C0F8801EFFF790F840
:101700000546706F800714D4FFF78AF8401B022843
:10171000F7D97BE00021C0F8801EFFF781F805466D
:10172000706F800705D5FFF77BF8401B0228F7D9BB
:101730006CE02078400729D4A769002F00F0D780FB
:10174000B06800F00C00082863D1012F1BD0E169BC
:10175000706800F480028A4215D1216A00F03F02CD
:101760008A4210D147F6C071626A014091420AD1A3
:10177000A16A00F440328A4205D1E16A00F070604B
:10178000884200F0B4800120BDE8FC81306C4FF04D
:101790000008C0000CD4CDF80480306C4FF0010874
:1017A00040F080503064306C00F08050019001981F
:1017B000514F3868C0050FD4386840F480703860E5
:1017C000FFF72EF805463868C00505D4FFF728F85E
:1017D000401B0228F7D919E0A768012F05D0306F08
:1017E000052F45D140F004003067306F40F0010014
:1017F0003067FFF715F8054641F28837306F8007EC
:101800004ED4FFF70DF8401BB842F7D90320BDE8CE
:10181000FC813849002088460866FFF701F8054634
:10182000022F0AD147463068800142D5FEF7F8FF03
:10183000411B03200229F6D95AE03068800156D5B1
:10184000FEF7EEFF411B03200229F6D950E029489C
:1018500000210160FEF7E4FF0546306880077FF550
:1018600044AFFEF7DDFF411B03200229F5D93FE01D
:1018700020F001003067306F20F004003067FEF781
:10188000CFFF0546002FB7D141F28837306F800770
:1018900006D5FEF7C5FF411B0320B942F6D927E064
:1018A000B8F1000F3FF448AF306C20F08050306446
:1018B00042E71C341FCC084340EA8210D9034FF69C
:1018C000FF72914340EA0460A1F5803108437060E3
:1018D00001203866FEF7A4FF04463068800106D474
:1018E000FEF79EFF011B03200229F6D900E000202D
:1018F000BDE8FC810000474200700040411E00200E
:10190000B0EB116F1CBF01207047044AF0235160F7
:1019100003490B70072190601160704710E000E0F0
:1019200023ED00E0FEE70000013804281FD8DFE8BF
:1019300000F0030507181B000E4808E00D480BE0F7
:101940000B4801684A1C0260C8070A4804D14FF4DA
:1019500080510122FEF758BF4FF480510022FEF75C
:1019600053BF0348002101E0014801218175704700
:101970000800002000180240FEE770470148FFF70A
:1019800007B800BFE809002070477047FFF7F0BCB8
:1019900010B50E480F4CD0F8801041F47001C0F81B
:1019A00080100B490A6842F001020A6000228A6036
:1019B0000B6823400B60084B4B600B6823F48023BB
:1019C0000B60CA604FF00061016010BD08ED00E0DF
:1019D00000380240FFFFF6FE1030002410B500F280
:1019E000844300220B2A06D003EB82046478240689
:1019F00003D50132F6E7FF2205E000EB820001F596
:101A00000041C0F88414D0B210BDBFB50024012538
:101A1000CDE90051CDE9022419460122022300F04C
:101A200025FB002004B0B0BD7FB590F81D44089D93
:101A3000002C4FF001044FF0000618BF3546CDE9E9
:101A40000041CDE9022519460022022300F00EFBD9
:101A5000002004B070BD80B500F03FFA002080BDCA
:101A60008278012A05D10022C28281824FF48171DD
:101A700001610021002200F00FB8BFB5002401254C
:101A8000CDE90051CDE9022419460122002300F0DE
:101A9000EDFA002004B0B0BDBCB504468078022841
:101AA00009D0012840F0C580012502202576A281B9
:101AB000A160A070BEE0207E01380A2800F2B98043
:101AC000DFE800F0060E25303D4756626B7989004D
:101AD000627904F11001204600F0C5F80220A7E069
:101AE0006179204600F050FA042818BF022870D00F
:101AF000012840F09E80E18A94F91000002900F04E
:101B00009380B0F1FF3F00F38180032090E0D4F890
:101B1000C404E081A1682379A2892046FFF7ADFFC4
:101B2000042085E02179204600F02EFA052800F0F7
:101B3000768004284DD0012800F0798079E063791F
:101B4000A289A16801252046009500F075F80620BD
:101B50002CE06179204600F017FA013801250428AD
:101B600068D8DFE800F0035367555A0007205FE0AC
:101B70002379204600210022FFF77FFF08202076EE
:101B8000D4F8C404E08154E02179204600F0FCF947
:101B9000052844D0042816D11BE06379012520468E
:101BA00000210022009500F047F80A202076D4F8A2
:101BB000C404E0813EE06179204600F0E5F90428A4
:101BC00007D0022833D0012833D10D2000252076FC
:101BD00026E00B202CE0607E01306076C0B2022847
:101BE00003D80125A570257624E0D4F8D424204616
:101BF00006219047002565766179204600F061F85E
:101C00002179204600F05DF8257003E005200FE003
:101C10000B202076012002254BE70C20207603259F
:101C200000202076012044E7B0F1FF3F9EDC092030
:101C3000207601252846BCBD7FB590F81D44089D3F
:101C4000002C4FF001044FF0000618BF3546CDE9D7
:101C50000041CDE9022519460022002300F006FAD2
:101C6000002004B070BD1FB500230824CDE9003169
:101C7000CDE9024311460022002300F0F7F90020CD
:101C800004B010BDFEF73ABCB0B500F249440020E4
:101C9000022813D0FF2903D014F8025C8D420AD128
:101CA000FF2A03D014F8015C954204D1FF2B06D023
:101CB00025789D4203D01A340130E9E7FF20C0B2F5
:101CC000B0BD0A2907D800EB8100D0F884146FF367
:101CD000DF31C0F8841400207047B0B58578144611
:101CE000049A012D0FD1062541F08001C282448261
:101CF0004574017424F0FF010024B1F5407F08BF52
:101D000040F2094484821946BDE8B040FFF7C4BEE2
:101D10002DE9F84300F11C050E46009100214FF417
:101D200000722B468046FFF7D8FF002863D1B8F831
:101D30001C100A2EA8F83814B8F81E30A8F83A3447
:101D400098F8201088F83C14D8F82110C8F83D14F1
:101D500051D3002109229BB24FF01A0C96B29E4239
:101D600049D2CEB2012E46D82F783D443A446F78FE
:101D7000042FF3D116FB0C8E2E788EF842646E7809
:101D80008EF84364AE788EF84464EE788EF845643D
:101D90002E798EF846646F798EF84774AF798EF895
:101DA0004874EF798EF849742F7A8EF84A740027B8
:101DB0001AE02C78254422446C78052C14D12C7818
:101DC0000EEBC70989F84C446C78013789F84D440B
:101DD000AC7889F84E44EC7889F84F44AC88A9F87F
:101DE0005044AC7989F8524494B29C4238BFB7420F
:101DF000DFD30131B2E7BDE8F883BCB50D460091F1
:101E000000F5077300214FF480720446FFF765FF69
:101E1000E8B9D4F81C12D4F82022092DC4F82614ED
:101E2000C4F82A2413D3B4F82412A4F82E14D4F836
:101E30002612C4F8301494F82A1284F83414B4F832
:101E40002B12A4F8351494F82D1284F83714BCBD65
:101E50007CB51D461446009301F5407200F50773EA
:101E600000210646FFF739FFB8B996F81D1203297D
:101E700013D196F81C1206F21E220239A94288BF1D
:101E8000294689B200239BB28B4204D2D55C02332F
:101E900004F8015BF7E7002121707CBDD8B170B573
:101EA00000260D460446C0F87C64C0F8806480F8C3
:101EB000CC24FEF778F984F8206484F8216484F84F
:101EC000236484F822640DB1C4F8D454204600F091
:101ED0006DF8002070BD0220704780B5D0F8D004A6
:101EE000FEF7BFFC002080BD012180F820140021F6
:101EF00080F8211480F822140020704710B50446A1
:101F0000012084F82104002084F8230484F82004AC
:101F1000204600F0A4F821792046FFF7D2FE61792F
:101F20002046FFF7CEFE002010BD000080B5B1FABC
:101F300081F0420904482021FEF766FCC820FEF724
:101F4000DDFA002080BD00BF001C0240D0F8D004A4
:101F5000FEF781BC80B5D0F8D004FEF772FC0228F1
:101F60008CBF0120C0B280BD01EB8100374901EB7D
:101F7000C00090F83B1000F15002002908BF00F1AA
:101F800051021078704700BFD0F8D004FEF75CBC57
:101F9000D0F8C4140131C0F8C41401780B2904D15D
:101FA000D0F87C1409B1896908477047B0B5274D4E
:101FB0004FF0A042044600202A6002220B21C5E90E
:101FC000062001222862C5F8C042C5E90212286134
:101FD0002846C4F8D054FFF75FF82846FEF72EFCD9
:101FE0000146204600F01FF80020B0BD1FB5089C38
:101FF000D0F8D0040294079C0194069C0094FEF74C
:1020000042FC002004B010BD002180F8231470476A
:10201000012180F82314704780B5D0F8D004FFF771
:1020200077F9002080BDC0F8C414704701EB81002F
:10203000064901EBC00090F83B1000290CBF80F866
:10204000512080F850200020704700BFE809002090
:1020500080B5D0F8D004FFF762F9002080BD80B5CC
:10206000D0F8D004FFF771F9002080BD1FB5099C9E
:10207000D0F8D0040394089C0294079C0194069C19
:102080000094FEF739FC002004B010BDD0F87C2489
:102090000129D26902D029B9D11D00E0911D09782A
:1020A000FFF7DEBC02207047D0F87C040549C06908
:1020B000054AC0E91521012180F8521080F850101E
:1020C0000020704750403020555342437CB50446B1
:1020D000D0F87C04C66996F8500001380A2800F24E
:1020E000E280DFE800F0063E5760157A959EC32235
:1020F000CB00022086F8500086F861107379012524
:1021000006F1540120461F220095FFF78DFCCBE01D
:1021100073793289D6F88C10012520460095FFF797
:1021200083FC062086F85000BEE0204601210125F0
:10213000FFF7ACFF042800F0AB80002840F0B4802B
:1021400071792046FFF710FFC0F101007179C2B22A
:102150002046FFF76BFF317920460022FFF766FF2C
:1021600082E071792046FFF70FFF052800F092808A
:10217000022800F09B80012840F09580F06D002837
:1021800000F08E8096F96000B0F1FF3F00F384808C
:10219000032086E033797289D6F88C102046FFF749
:1021A00034FC04207DE031792046FFF7EDFE052860
:1021B0005AD0012877D17289F06D90426ED9801A79
:1021C000F065D6F88C0000EB0201C6F88C1067D0E1
:1021D00033792046FFF719FC65E071792046FFF757
:1021E000D3FE052856D0022856D001285BD132896B
:1021F000F06D904252D9801AF065D6F88C0000EB51
:102200000201C6F88C104BD07379012520467BE77C
:10221000337906F1780120460D22FFF7F6FB0820FE
:102220003FE031792046FFF7AFFE05281CD001289A
:1022300039D1012086F8520086F85000D4F87C0489
:10224000C56920462979FFF781FE0D280AD1A86FBC
:102250001849884206D1A86DE96F814202D195F8EC
:10226000840098B102251FE009201AE020460021D1
:10227000FFF70CFF04280BD090B114E0204600F0CB
:1022800026F8054680B9012086F8500000250BE0AD
:102290000B2006E00A2004E0052002E00020F065A3
:1022A000072086F85000012528467CBD012586F8C8
:1022B0005050F9E7555342530122C2820022C0F820
:1022C00012204FF6A16202820122FFF7E5BB002136
:1022D000C182C0F812104FF6217101820021002244
:1022E000FFF7DABB10B5D0F87C14CC69A17B19B12B
:1022F00003290BD002290FD12146FFF7DDFF68B17A
:1023000003280AD10020207001200CE00021FFF7F3
:10231000A7FB08B9E07BA073012010BD2178481C01
:10232000022988BF022004F8920BC0B200210222C9
:1023300028B184F82F10227034340138F8E70020D7
:1023400010BD80B5D0F87C34DB6900780B281CBF49
:10235000022080BD342011FB003000F190011046B6
:102360003422FDF790FE002080BDB0B50446D0F8C1
:102370007C04C569697941B12046FFF76CFB697936
:102380002046FFF79EFC00206871297941B1204664
:10239000FFF761FB29792046FFF793FC00202871A5
:1023A000D4F87C04C06928B102F03CFDD4F87C0468
:1023B0000021C1610020B0BD2DE9FF410446D0F8E5
:1023C0007C040622017920465023FFF75DFC01289A
:1023D00005D806462046314600F090FD20B1022681
:1023E000304604B0BDE8F0814FF4807002F042FD49
:1023F0000546D4F87C04002DC561F0D028464FF482
:102400008071FDF759FE1A2016FB004191F94E0428
:10241000B0F1FF3F04DDA871B1F85014298104E048
:10242000E871B1F85004688100201A2116FB0142BE
:1024300092F95614B1F1FF3F05DDA971B2F85804C5
:102440002881084603E0E971B2F858146981002632
:10245000C1B22046AE73AE81FFF7C0FA6871E97968
:102460002046FFF7BBFA28712046FFF71DFE94F8BF
:102470001D046979AA7994F81C342F894FF0020859
:10248000CDE900082046029700F036FB94F81D04C1
:102490002979EA7994F81C346F89CDE9000820463F
:1024A000029700F029FB297920460022FFF7BEFDA4
:1024B000697920460022FFF7B9FD91E770B505461E
:1024C000D0F87C04C669307B012820D0002840F079
:1024D000D180B6F8F800317888421AD2342100FB56
:1024E0000161012411F8902F082A4C7000F2C3807A
:1024F000DFE802F005C11A355062C1C18A0004202C
:102500000870D5F8C4040124C6F8FC00B3E0002428
:10251000B1E0012400203473A6F8F800D5F8D424E3
:10252000284602219047A6E0C1B2284600F033FABF
:10253000042879D0022800F08180002840F09A8099
:10254000B6F8F800342100FB01600321A0F89010D8
:1025500090F89210002280F8922000297DE0342427
:1025600000FB046101F19402C1B2284600F09EF91B
:1025700004284DD0022850D000287BD1B6F8F800AE
:10258000342100FB016101240130A1F89040A6F83C
:10259000F80070E0342400FB046101F19F02C1B235
:1025A000284600F0F4F8042832D0022835D000285C
:1025B00060D1B6F8F80022E0342400FB046101F198
:1025C0009C02C1B2284600F0A7F9042820D00228B6
:1025D00048D000284ED1B6F8F800342100FB016144
:1025E00091F89C2042F00402062A46D1D6F8FC203D
:1025F000D5F8C4349A1A42F20F739A423DD8342166
:1026000000FB0160022133E00130A6F8F80031E060
:10261000B6F8F80000FB04600BE0B6F8F8003421CF
:1026200000FB0160052123E0B6F8F800342100FB2F
:10263000016040F20121A0F890101BE0B6F8F8000C
:10264000342100FB016040F20511A0F8901090F8D1
:1026500092100222023980F8922018BF012180F8DE
:10266000C11007E0B6F8F800342100FB0160082132
:1026700080F890100124204670BD01300124A6F896
:10268000F80081F89040F6E77CB50C46D0F87C1451
:10269000CE69342114FB0162154615F8901F0529F7
:1026A0000BD0072919D006292DD1002100912146F0
:1026B0000022002300F0BFF816E09C32214600F013
:1026C0002BF9042819D0F0B901202870342014FB0C
:1026D0000061022081F891007CBD0021009121461B
:1026E0000022002300F07AF9042806D0022808D03E
:1026F00048B90120287000207CBD082028700220E5
:102700007CBD0520287001207CBD2DE9FC410546DB
:10271000D0F87C04D0F81C8095F8200470B3287899
:102720000B282BD1342011FB00800C4610F8901F91
:10273000012923D1089E0621017088F80C10284633
:102740002146A8F8FA40009600F075F842F21070A1
:1027500006FB00F7D5F8C46428462146FFF794FF2E
:1027600001280ED1D5F8C404801BB84203D895F8CF
:1027700020040028F0D1012088F80C000220BDE8D8
:10278000FC81012088F80C000020BDE8FC81B0B578
:102790001446D0F87C24D56995F85220022A1FD01F
:1027A000012A21D10020C5F86900802085F8600049
:1027B0002420E8654FF41010C5F8650041F20A20A6
:1027C000A5F86200022085F852000120490185F831
:1027D000500085F8641005F11001C5F88C10B0BDEB
:1027E000FFF774FC10B1B0BD0220B0BD204622211D
:1027F000FDF762FCD5F88C001022017801F01F0172
:1028000061700178490921704178C909A170816816
:10281000C068C4F80310C4F80700D5F88C1004F1A0
:102820000C001031FDF72FFCD5F88C00006AC4F8BD
:102830001D000020B0BDB0B5D0F87C44E46994F828
:102840005250022D2CD0012D2ED1002042F60A0527
:1028500004996066A066A4F86250802584F86050F0
:10286000E066C4F86F000220C4F88C3084F852008F
:102870000120130A84F8500084F86730130C84F8A0
:102880006630130E84F865300B0A84F86B1084F8F8
:102890006A3084F86820B4F898205143E165B0BDEF
:1028A000BDE8B040FFF712BC0220B0BDB0B5144681
:1028B000D0F87C24D56995F85220022A1BD0012A31
:1028C0001DD100208021686685F860100821E96527
:1028D000A866E866C5F86F0042F20A50A5F86200E3
:1028E000022085F85200012005F1100185F8500002
:1028F000C5F88C10B0BDFFF7E9FB10B1B0BD0120E9
:10290000B0BDD5F88C00016809BA2160C08800BA52
:10291000000CA0800020B0BDB0B51446D0F87C24D7
:10292000D56995F85220022A23D0012A25D100200A
:102930008022C5F8690085F860200E22EA65C5F896
:102940006D00A5F871004FF46020C5F8650040F2F5
:102950000A30A5F86200022085F8520001204901E2
:1029600085F8500085F8641005F11001C5F88C1049
:10297000B0BDFFF7ABFB10B1B0BD0220B0BDD5F8C4
:102980008C00817801F00F012170017B6170407B28
:10299000A0700020B0BDD0F87C24D26992F85230EB
:1029A000022B19D0012B1CBF0220704700200A21E6
:1029B000C2F8630082F8621082F86000D065C2F845
:1029C0006700C2F86B00C2F86F00022082F8520064
:1029D000012082F850007047FFF778BBB0B5D0F8FF
:1029E0007C44E46994F85250022D2BD0012D2DD156
:1029F000002042F60A2504996066A066A4F8625099
:102A000084F86000E066C4F86F000220C4F88C30DF
:102A100084F852000120130A84F8500084F86730CB
:102A2000130C84F86630130E84F865300B0A84F8B2
:102A30006B1084F86A3084F86820B4F89820514309
:102A4000E165B0BDBDE8B040FFF740BB0220B0BDBE
:102A500000207047D0F87C24D26900780B2805D17B
:102A6000342011FB002090F8910008B1002070473D
:102A7000012070472DE9FC410546D0F87C04D0F8D0
:102A80001C8095F8200470B328780B282BD13420B3
:102A900011FB00800C4610F8901F012923D1089EDD
:102AA0000721017088F80C1028462146A8F8FA4042
:102AB0000096FFF793FF42F2107006FB00F7D5F87F
:102AC000C46428462146FFF7DFFD01280ED1D5F862
:102AD000C404801BB84203D895F820040028F0D124
:102AE000012088F80C000220BDE8FC81012088F854
:102AF0000C000020BDE8FC811FB5089C0294079CD7
:102B00000194069C0094FFF771FA002004B010BDF8
:102B10007FB5044602208DF80F0094F821040128A7
:102B200004BF0320207020780B2800F2CB81DFE85F
:102B300010F00C00280033006900C9018900B200C0
:102B4000C400CD00D700E4001F0094F82004002842
:102B500000F0B88101202070C820FFF793F82046CC
:102B6000FFF75AFA0020C4F8C80484F81C04A9E14D
:102B7000D4F87C04002800F0A581416920468847EC
:102B8000A0E194F82304012840F0D58002202070B1
:102B9000002084F81F0495E1D4F8D42412B1204613
:102BA000042190476420FFF76DF82046FFF7D2F923
:102BB00084F81D0405202070204600210025FEF722
:102BC0000DFF607120468021FEF708FF207101464D
:102BD00094F81D04A27994F81C34CDE90005029202
:102BE00020468022FFF788FF94F81D04A27994F80C
:102BF0001C346179CDE90005029220460022FFF7DE
:102C00007BFF5FE10025204684F82154FDF7CBFAD5
:102C1000D4F87C0420B1C16820468847C4F87C54AD
:102C2000D4F8D42412B120460521904794F8220408
:102C3000012840F08F80002084F82204204600F014
:102C40008DF93FE16078072800F22D81DFE810F070
:102C50000800CA009100D400BF00F100FF000E017F
:102C600020460821FFF7C9F8032800F01281002848
:102C700040F019810125657094F82D040026A0719B
:102C800094F81D2494F81C342179CDE90026029093
:102C9000204680228BE0D4F87C04002858D00169BB
:102CA000204688478DF80F009DF80F0000285CD063
:102CB0009DF80F0002284BD004E1D4F8D424002A58
:102CC00000F00081204601219047F9E094F83D147E
:102CD000204600F029F9002840F0F4800920F0E0B7
:102CE00094F83F04800606D52046012100F029F91A
:102CF000002840F0E7800A20E3E0D4F880040028B0
:102D000000F0E0800020C4F87C04D4F8780494F843
:102D1000471402798A421BD1C4F87C04C0B181688F
:102D200020468847A0B906202070D4F8D424204635
:102D300003219047C6E0D4F8C804B0F57A7F0DD9D6
:102D400094F81F04013084F81F04C0B204280ED385
:102D50000D20B6E02046FFF77BF9B3E00A30C4F857
:102D6000C8040A20FEF78EFFACE00B20A9E000208B
:102D7000A7E020460121012500F0C9F8032800F052
:102D80008580002840F090800220FEF77BFF032022
:102D90000125607084F81C5494F81D04A2792179EF
:102DA0000026CDE900060292204680220123FFF78B
:102DB000A3FE94F81D04A27994F81C346179CDE93E
:102DC0000006029220460022FFF796FE6CE0B4F85F
:102DD0003A142046FEF79CFF032817D0002862D142
:102DE000052041E020461221FFF707F803280DD007
:102DF000002858D1022037E020460921FEF788FF3D
:102E0000032803D000284ED104202DE094F81E049E
:102E1000013084F81E04C0B2042842D261792046F1
:102E2000FEF74FFF21792046FEF74BFF0020607030
:102E300038E094F8341441B104F507722046FF23BA
:102E4000FFF706F8032800D068BB06200CE094F8D2
:102E5000351441B104F507722046FF23FEF7F8FF51
:102E6000032800D0F8B9072060701CE094F83614ED
:102E700051B104F507722046FF23FEF7E9FF002554
:102E800090B1032810D00EE000250DE00020607006
:102E900007E094F81E04013084F81E04C0B2042830
:102EA00015D30D20207001258DF80F509DF80F00CF
:102EB00040B9002084F8240494F83704012804D190
:102EC00008202070002004B070BD0720F9E7617968
:102ED0002046FEF7F6FE21792046FEF7F2FE00209E
:102EE000E0E711B1D0F880240AB102207047C0F8A1
:102EF00078140121C0F880140020704790F83C2419
:102F00008A4292BF022080F8241400207047827801
:102F1000012A05D10022426141824FF4A061018261
:102F200000210022FEF7B8BD8278012A05D10022D7
:102F3000426141824FF41061018200210022FEF7BC
:102F4000ABBD8278012A05D10022426141824FF453
:102F50004071018200210022FEF79EBD10B504469B
:102F6000FFF776F820460121FEF7E0FF002010BDB4
:102F7000052903D0022904D1012000E000200149E5
:102F8000087070475C0000200020704710B58EB0BC
:102F900003290DD803461446DFE801F022020C1580
:102FA000614801AA1946FFF7CCF990B9029815E0DB
:102FB000042115E05C4801AA1946FFF7C2F940B99F
:102FC000BDF80C000AE0584801AA1946FFF7B9F904
:102FD00008B1012104E0BDF80C00400A2060002186
:102FE00008460EB010BD00BF2DE9F0478EB01D465B
:102FF0000B468146880722D04B48D0F8D0040069A0
:10300000E8B103EB4520DFF82081484FA0F50076BA
:10301000541E4FF0010A45B36219404649463B46EB
:10302000CDF800A0FFF771FB78B9304639464FF470
:103030000072013DFDF727F8A6F50076EBE73A4868
:1030400049460095FFF761FB78B1374801AA494628
:10305000FFF777F99DF811100320042918BF2829DC
:1030600004D03A2918BF012000E000200EB0BDE8CE
:10307000F08700BF80B501462B48FFF7EBFCB0FAA4
:1030800080F0400980BD00BF2DE9F04F8FB01D4694
:103090000B468146880727D02348D0F8D004006922
:1030A00010B303EB4520214FDFF87C80A0F50076BC
:1030B000A2F1010B00204FF0010AD5B1384631468C
:1030C0004FF400726C1EFCF7DEFF0BEB050240466E
:1030D00049463B46CDF800A0FFF7CCFCA6F50076AC
:1030E00002282546E9D105E00F4849460095FFF73B
:1030F000C1FC80B10C4802AA4946FFF722F99DF8AD
:103100001500042805D0272807D03A2801D0282800
:1031100005D1032004E0002002E0022000E00120AD
:103120000FB0BDE8F08F00BF10050020CC0C0020D0
:1031300070B504460698049D012816D1A16B184A63
:1031400021F48031A163E1680D981140E160E168EC
:10315000012821F44011E16003D1E06840F48010BF
:10316000E060204600F01EF80FE0E0680A9E40F0A4
:103170004000E060204600F015F8A16B002E14BF5F
:1031800021F4803141F48031A163012D07D1A16880
:1031900041F00601A160A16841F02001A16070BD6D
:1031A000BFFFBDFF38490A46013A0FD00369B3F1AA
:1031B000FF3FF9DC026942F001020261013905D0EA
:1031C0000269D20704BF00207047F7E70320704769
:1031D000816821F0010181600020704700EB4110FF
:1031E00005490222C0F81015D0F8001562F39F714E
:1031F000C0F80015002070470000088081B0002250
:103200000092D0F8402401290092009A22F02E0268
:103210000092009B009A08BF13F4805309D069B94B
:1032200012F480510AD0009921F48051C0F8401462
:1032300004E042F48051C0F840140098002001B02E
:103240007047816841F001018160002070470000F3
:10325000102101610C49013904BF03207047026944
:10326000D2065CBF00207047F5E700BF890120311E
:1032700001610549013904BF0320704702699206C4
:103280005CBF00207047F5E7410D0300D0F808044B
:1032900080B2704781B000210091D0F840040090C6
:1032A0000098C0F3414001B07047406900F0010050
:1032B000704710B5490100F5A062535854585B039C
:1032C00044F08044545017D4C36A885813F47F0FD5
:1032D00018D120F000408850885840F000408850B5
:1032E000885820F40040885040F2E93001380CD072
:1032F0008B58002BFAD408E0D0F81034885813F417
:103300007F0F04D040F000408850002010BD20F016
:1033100000408850885840F000408850885820F479
:103320000040885040F2E9300138EED08B58002B35
:10333000FAD4EAE72DE9F041DDE906C800EB4114D3
:103340004FF0FF35089FC4F8085504F5A0654FF00D
:10335000010EB8F1030F11D8DFE808F00212021DC8
:1033600040F29D44EC6054B2B4F1FF3F1ADDC46BEF
:10337000E4051BD5EC6844F0600416E0012416E077
:1033800040F22524EC6054B2B4F1FF3F0EDCEC684F
:1033900044F4C07409E040F29D64EC6054B2B4F1AE
:1033A000FF3F03DCEC6844F48074EC60002401F01F
:1033B0000F01D0F818640EFA01F13143C0F8181467
:1033C0008169BCF1020F41F0007181614FF400404E
:1033D00000EA022002F00F0140EAC12003F07F0161
:1033E00040EA815008BF00F5003008F0030140EAD0
:1033F00081406FF3DF273844B8F1030F286003D111
:10340000286840F0005028602046BDE8F081D0F8E0
:10341000140480B270470000F8B594464A78C46B33
:10342000E40503D50C79002C00F080800C696CB1A8
:103430000D896619013EB6FBF5F6B7B2B7F5807F88
:1034400082BF2C020C614FF4807601E0012600243B
:1034500091F803E0BEF1000F03D00C89B7B27C43B2
:103460000C613F4B00EB421703EAC64326466FF35D
:10347000DF4633448E7ABCF1000F06F0030643EAC0
:103480004673C7F8103507F5A0661CBFCB6873619B
:10349000D0F808343768BEF1000F27F000573760C6
:1034A0004FF0005727EA4373376843EA0703336056
:1034B00033682C4F3B603B6823F080433B603B68A4
:1034C00043F4004508BF23F400453D603B6843F0EA
:1034D00000433B603B6833605EEA0C0324D11CB3BD
:1034E000CB79032B1AD8DFE803F0020D020DC36A73
:1034F000E51C9BB2C5F38F059D420FD9836943F04C
:1035000020030AE0D0F81034E51C9BB2C5F38F0508
:103510009D4203D9836943F080638361C9680023B6
:103520000093A3B200F026F90020F8BDBCF1010F12
:103530000BD0BCF1000F7FF479AF4C79012C7FF4F4
:1035400075AF1146FFF74AFEEEE700244C7100EB21
:103550004214D4F80C5525F06005C4F80C5565E705
:103560000000F81FFC04002070B504460020C4F8D9
:10357000000EA06B154640F40010A063A06B20F471
:103580000020A063A06B20F48020A063E06BC00546
:1035900002D4D4F8000406E0D4F80004012B02D1D0
:1035A00040F0040001E020F00400C4F80004049E90
:1035B00020461021FFF75AFE2046FFF749FE04F58A
:1035C000A0604FF0FF31002225B18160C260203041
:1035D000013DF9E720460121FFF710FEC820FCF766
:1035E0008DFF0020A0614FF0FF306061E06B4FF471
:1035F000007110F4807008BF802161620C4904BF23
:103600008021C0F26001A1620A49002804BFE021C4
:10361000C0F24001C4F800111EB9A06940F01000CA
:10362000A061A06904490843A061002070BD00BFEB
:10363000000200010003E000080020A3D0F80024ED
:10364000012922F00302C0F80024D0F8003401F070
:10365000030242EA0302C0F8002404D0022906D182
:1036600041F2707101E04BF68031C0F80414002083
:103670007047416980690840704710B5033292086D
:103680004FF4805322B1C458013A41F8044BF9E792
:10369000084610BD1CB5044600200190D4F8400433
:1036A0000190019820F02E000190019840F4807064
:1036B000C4F840046420FCF721FF019820F48070D6
:1036C000C4F840040A20FCF719FF00201CBD80B597
:1036D000C268012922F0C042C26003D061B94FF034
:1036E000804101E04FF00051C2681143C1603220B7
:1036F000FCF704FF002080BD012080BD70B50446AA
:103700008068102120F00100A0602046FFF7AEFD88
:103710002046FFF79DFD164904F5A0600022B2F592
:10372000007F06D083580B4003F180438350203242
:10373000F5E700220023102B0ED05D0146590E4004
:1037400006F1404646510132B2F57A7F02D82E5832
:10375000002EF8D40133EEE74FF0FF30C4F8140424
:103760006061A06840F00100A060002070BD00BF53
:10377000FF7FFF3F10B5029C54B90333120300F5DD
:1037800080509B0823B151F8044B013B1450F9E7DA
:10379000002010BD2DE9F047ADF5816D574858491F
:1037A000002200F02FFC08B1012406E055485649DC
:1037B0000122012400F04EFC20B120460DF5816D60
:1037C000BDE8F0874F484FF4006100F01FFB002870
:1037D000EAD14E4F4B4807F10C0101AB042200F037
:1037E0005DFD0028E0D1474800F0FEFA484900207E
:1037F0000022002400F006FCB868211D05D039190C
:10380000C97B013C41EA0020F7E7B860A0F603203D
:1038100002240528D1D8012101FA00F010F0250F6B
:10382000CBD001AC20464FF48061FCF745FC394D0C
:103830003248334900223D6100F0E4FB002854D1B6
:10384000304E31493046012200F004FC00284CD1B2
:10385000EFF3108072B62846FCF738FD002844D1FB
:1038600062B6F568B5F5802F3FD8DFF89880AE0ACC
:103870004FF0000A0DF204490120A90518BF00EB22
:10388000952676B30320FEF74FF8404621464FF4C5
:1038900080624B4600F002FDB5F5806F06D320BB79
:1038A000DDF80404E8B1A5F580650AE0E8B9DDF8C3
:1038B0000404B0B16019C5F58061FF22FCF7F5FB87
:1038C0000025EFF3108072B63869214650444FF45A
:1038D0008072FCF717FD40B962B6013E0AF5806AB6
:1038E000CFE7084800F080FA08B1022465E70849EC
:1038F00000200022002400F085FB5EE7CC020020BF
:103900005D0000209C000020934F0208680000200A
:10391000924F020800000408FEE7000010B5074CB3
:1039200000F00F032344044AB0F1FF3FC8BF8318DF
:103930000801187010BD00BF00E400E014ED00E0C5
:10394000B0B504464FF0FF30E0620020E070204642
:1039500001F016F908B10420B0BD94F82E0294F8D5
:103960002F1240EA01204AF6552188421CBF03204D
:10397000B0BD94F83000E92805D0EB2816D194F8B2
:103980003200902812D104F1660001F05EF8084D73
:1039900020F07F40A84207D004F1820001F055F8E2
:1039A00005F14C51884201D10020B0BD0220B0BDCC
:1039B00046415400F0B5684B00220024202A11D063
:1039C0009D5865B10668B5420AD19D186E68876832
:1039D000BE4205D1AE684769BE4201D10BE0012469
:1039E0001032EBE71222002C18BF0022881E18BFED
:1039F0001046C0B2F0BD09B11020FAE7A889A0F5C1
:103A00008070B0FA80F040090001F2E710B5524A28
:103A100000210023202B08BF10BDD458844208BFCA
:103A2000D1501033F6E700BF0268C36A5089490AD3
:103A3000B1FBF0F0191D0A6822B1904204D3801A3C
:103A40000831F8E700207047496808447047426928
:103A50000239023A914224BF00207047826A4089AD
:103A600001FB002070472DE9F041046888460746B5
:103A700079B13846414600F023FF02283CBF0120BF
:103A8000BDE8F081411C21D061694546884206D2DB
:103A900037E0E56815B16069854200D301252E46FF
:103AA00060690136864228BF022601D3022D0AD35F
:103AB0003846314600F004FF411C22D050B10128A5
:103AC0001FD0AE42ECD10020BDE8F0814FF0FF30B6
:103AD000BDE8F081204631464FF0FF3201F06CF82E
:103AE0000146B8F1000F06D029B9204641463246BA
:103AF00001F062F8014631B10120012908BF4FF001
:103B0000FF30BDE8F081E660D4E904010239884263
:103B10009CBF01382061207940F0010020713046BF
:103B2000BDE8F08110B5411E012984BF022010BDFF
:103B3000094A02EB01108389B3F5807418BF1C4653
:103B4000002C18BF013C848120044FF0000004BF0A
:103B50000901505010BD00BF7C0000202DE9F04746
:103B60000446C069042690B18A4661693E4A01F163
:103B7000200595420BD82F46D4F800906FF35F27AD
:103B800047B109EB070030300026656120623046FE
:103B9000BDE8F0870130E061A16971B1B9F80A00B0
:103BA000104400F5C00010EA552FEAD1204600F07D
:103BB00087FE02280AD20226E9E7B9F80800B0EB2E
:103BC000551FDED80020E0610426E0E78046013082
:103BD00023D0D9F81400804507D248464146C4F89E
:103BE0001880FFF734FFE061CBE7BAF1000FE9D0AE
:103BF000A1692046FFF737FF80460130032808D22D
:103C00001A4901EAC0001A4921FA00F0C0B2BDE821
:103C1000F087484601F0C8F808B10126B7E709F176
:103C200030004FF40071FCF747FA48464146FFF771
:103C30000EFF4FF0000A0126C9F82C00B9F80A104F
:103C40008A450CD2484689F8036001F0ADF8002897
:103C50009DD1D9F82C000AF1010A0130ECE7A0EB64
:103C60000A00C9F82C00B8E7FFFF1F00F8FFFF00AB
:103C700001070200B0B50468054600F028F870B9E5
:103C8000E969204600F07CFF48B9286A007850B105
:103C9000E52808D028460121FFF760FFEFE7042858
:103CA00008BF072020B9E969204600F069FF00B18C
:103CB000B0BD286A2021FCF7FFF9286A05F124012C
:103CC0000B2200F055FF0120E0700020B0BD2DE96F
:103CD000F041044600206061A668D4F80080A6B1D7
:103CE000B8F80A0000274502AF421ED320463146ED
:103CF00000F0E6FD064601302DD0022E28D3D8F87C
:103D00001400864224D27F1BEEE798F800000328B7
:103D100003D3D8F82460002EE2D1B8F80800B8B177
:103D2000D8F824000027002603E040463146FFF77C
:103D30008EFEC4E9066058B100EB57206FF35F2791
:103D400008EB07013031C4E907010020BDE8F0812C
:103D50000220BDE8F0810120BDE8F081214A115C1C
:103D600009B10020704701211154111802EB8000A5
:103D70004068097B02680846104700BF10B5194C1F
:103D8000231804EB800040681B7BD0F810C0184655
:103D9000BDE81040604700BFB0B5124D2C1805EBD0
:103DA00080004068247BD0F808C02046BDE8B040C1
:103DB000604700BF0B4A111802EB80004068097B86
:103DC00042680846104700BFB0B5064D2C1805EBF9
:103DD00080004068247BD0F80CC02046BDE8B0408D
:103DE000604700BF000500201CB5044600F00DFB35
:103DF00040B901A9204600F0FDFF18B92069FFF77E
:103E000091FE00B11CBD002020601CBD2DE9F84FC3
:103E10000E466946044600F0EDFF0546002840F0D6
:103E2000E080657D002D40F0DC80E16A31B3701CDC
:103E300032D0E068B04238BF0646002EA66100F0DE
:103E4000CF80751E20462946FFF7EEFDE061009FFA
:103E500001463846FFF7FBFD002800F09E80F10583
:103E600000F0BE807989226A013901EA55210E18D5
:103E7000964200F0B58094F91400A3E0E768B742D9
:103E800034D2207D800732D5A04658F8180F002183
:103E90003746C8F8001032E0A0688B465BF8048B08
:103EA0000227D8B1DDF80090824602370026054689
:103EB0002046294600F004FD01286ED9411C5CD043
:103EC000691C013688420546F2D0474598BFEBE8A9
:103ED000026AD9F814108842E6D3E16A0F604745B8
:103EE0008EBF11250025CBF800507AE03746A0465A
:103EF00058F8180F0026002FC8F8006051D0009D18
:103F000069894FEA412638B101387A1EB0FBF6F1D3
:103F1000B2FBF6F28A4203D2A16819B3E16104E070
:103F200071420840A061E1693F1AC9B3B74226D97E
:103F3000A0693044A061207D800704D4204600F0B1
:103F4000BFFC014604E02046FFF78DFD014638B373
:103F5000481C12D0022920D3686981421DD2BF1BA0
:103F6000E161E3E720460021FFF77DFD01460130D6
:103F700003D0012911D0A160D0E701250EE0D8F8C7
:103F800000003844C8F80000F80509D02846FFF7BB
:103F90005EFD10B100EB572603E00225657520E0B9
:103FA0000026E168A069884204D9E060217D41F0E3
:103FB00040012175C00513D0226A964210D094F9B1
:103FC0001400009FB0F1FF3F0EDD787804F130015E
:103FD000324601230125FFF7DFFE0028DED12662ED
:103FE00000252846BDE8F88F787804F130010123D8
:103FF0000125FFF7E9FE0028D0D1207D00F07F00E9
:104000002075E2E7FEB50546029068461446CDE904
:10401000001100F0B1FC002815D40D4901EB800718
:104020007E6826B13046FFF7F1FC0020307065B1A4
:104030000020012C28707D6004D101A802A9002273
:1040400000F02AFAFEBD0B20FEBD00207D60FEBD03
:10405000500000202DE9F04F8FB00E9170B102F0AA
:104060003F09154683460EA801A94A4600F014FAF6
:10407000074640B10020CBF8000000E00927F8B265
:104080000FB0BDE8F08FDDF804800E9902A8CDF8DE
:10409000088000F049FB074668B99DF93700002801
:1040A00008D415F03E0102A818BF0121FFF782FCD9
:1040B000074600E0062719F01C0F11D0F7B1042FB6
:1040C00025D17548002101F11002302A1ED0415837
:1040D00000291146F7D102A8FFF7CCFD074616E0EC
:1040E000002FC7D19DF80E00C10600F1CD805FEA18
:1040F000897149D510F0010006D145E09DF80E0008
:1041000010F0110F00F09D800727B3E7122749F048
:104110000809B7BB19F0080033D000F02BFC0A9E49
:10412000054606F10E00294600F0F7FD06F11600DF
:10413000294600F0F2FD2020F0724046314600F0A2
:1041400075FC05460020708398F80010032908BF0D
:10415000B082F061012088F80300ADB1D8F82C607E
:1041600002A82946002200F097FD074600287FF4A8
:1041700081AF4046314600F003FD0746681EC8F88F
:104180000C00002F7FF476AF0A9D0021CBF8285059
:10419000D8F82C000027CBF8240009F0080049EAE1
:1041A000C00402A8012C88BF012100F007FC0028F0
:1041B000CBF8100066D04046294600F037FC064692
:1041C000CBF8080005F11C0000F03FFCCBF82C7088
:1041D000CBF80C00CBF80080CBF820708BF8157072
:1041E0008BF81440CBF818700546B8F806000BF1B0
:1041F000300AABF8040050464FF40071FBF75CFF47
:104200005FEA89607FF53BAF002D3FF438AFCBF814
:104210001850B8F80A0000274402380615D1A54204
:1042200013D95846314600F04BFB064600210130B9
:10423000022E38BF01214F00002808BF01272D1B87
:10424000EBE7082000EA450763E7E905CBF81C60C7
:104250001CD0D8B940463146FFF7F9FB90B100EBCE
:104260005522CBF8202098F8010051460123FFF792
:1042700093FD002840EA070018BF012700067FF4DD
:10428000F9AE06E00227F5E60427F3E600287FF4FE
:10429000F1AE0027F3E600BF7C0000202DE9FE4FC1
:1042A000044600200F46186002A920469B46164689
:1042B00000F0A0FD08B9607D08B1BDE8FE8F207D4B
:1042C000C00704BF0720BDE8FE8FE068A169401A5F
:1042D000B04238BF0646DDF8089004F13000019086
:1042E000002E00F0898008466FF35F2060B1C0F5B2
:1042F00000752044B54288BF354600F1300138468C
:104300002A4600F035FC4BE0B9F80A00013800EA13
:104310005128B8F1000F01D0E16912E029B1E06A3B
:1043200028B12046FFF780FB05E0A16804E0E169C1
:10433000204600F0C5FA0146012960D9481C60D02A
:10434000E1614846FFF783FB002858D000EB080ADC
:104350000020B0EB562F2ED0750AB9F80A1008EBE2
:104360000500884288BFA1EB080599F8010039468D
:1043700052462B46FFF710FD002842D194F9140055
:10438000B0F1FF3F0BDC206AA0EB0A00A84206D286
:10439000019907EB40204FF4007200F0E9FB6D0239
:1043A000A069761B4119A161DBF800002F44284465
:1043B000CBF8000094E7226A524517D094F9140014
:1043C000B0F1FF3F0ADC99F8010001990123FFF7E2
:1043D000FBFCB0B9207D00F07F00207599F801004A
:1043E000019952460123FFF7D7FC50B9C4F820A029
:1043F000A0696FF35F207AE70020BDE8FE8F0220FE
:1044000000E001206075BDE8FE8FF8B569460446FE
:1044100000F0F0FC0746E8BB207D410601D40027F0
:1044200038E0009D00060CD5226A687804F130015E
:1044300001230127FFF7C8FC60BB207D00F07F004F
:10444000207500F097FA616A0646284600F098FB4E
:104450000746F8B9A76AF87A394640F02000F872A2
:104460002068A26800F050FCE16807F11C0000F031
:1044700054FC07F11600314600F04FFC0020788212
:104480000120E870284600F04BFC0746207D00F034
:10449000BF0020753846F8BD2DE9F04F85B00F46B6
:1044A00000211546396000F067FA002817D4DFF8BC
:1044B0006C82064608EB8000446804B33C602078B8
:1044C00005F0FE0568B16078FFF774FCC10708D1FC
:1044D00040070A21002D18BF01EAE07577E00B259F
:1044E00075E0002066702070F0B2FFF737FCC1075E
:1044F00007D145B110F0040005D00A2567E00C256E
:1045000065E0032563E0204600210025FFF718FA47
:10451000022820D101AE00253746402D0CD060196D
:1045200090F8F21121B100F5FB7000F08EFA00E076
:10453000002001C71035F0E7002756F8275035B1A5
:1045400020462946FFF7FCF9022801D209E00320A2
:104550000137042FF1D1042801D1012537E00128CA
:1045600034D894F83B0094F83C1040EA0120B0F5B0
:10457000007F2BD194F8460094F8471040EA012BB5
:10458000BBF1000F04D104F1540000F05EFA834641
:10459000C4F818B094F84060701E0128A67015D8B1
:1045A00094F83D70781E3840B7FA87F1678118BFDC
:1045B00001204909084309D194F8410094F84210B8
:1045C00040EA012A0007A4F808A004D00D252846D7
:1045D00005B0BDE8F08F94F8430094F8441040EA29
:1045E000012018B904F1500000F02FFA94F83E10A1
:1045F00094F83F2041EA0222002AE7D00BFB06F1A3
:1046000001EB1A1313449842E0D3C01AB842DDD329
:10461000B0FBF7F75819A062A8184FF6F672BE1C47
:104620004FF00309974240F6F672C4E907506661FD
:1046300038BF4FF00209974238BF4FF00109B9F176
:10464000030F10D194F85A0094F85B1040EA0A0066
:1046500040EA01200028B9D104F15C0000F0F5F92E
:104660006062B0000EE0BAF1000FAFD008446062A3
:10467000B9F1020F0FBF700006EB460006F0010112
:1046800001EB500000F2FF10BBEB502F9ED34FF018
:10469000FF30C4E903008020B9F1030F207130D14D
:1046A00094F8600094F8611040EA0120012828D1B4
:1046B000691C204600F064FA18BB0020207194F8B1
:1046C0002E0294F82F1240EA01204AF65521884222
:1046D00017D104F1300000F0B8F91149884210D127
:1046E00004F5057000F0B1F90E49884209D104F5CE
:1046F000067000F0AAF9206104F5077000F0A5F932
:10470000E06084F80090B8F800000130A8F80000DC
:10471000E0802046FFF77AF9002558E75000002096
:1047200052526141727241612DE9F84FD0F8008018
:104730000D46044628785C2818BF2F2801D1013582
:10474000F8E70020A0602878202807D2802084F88D
:104750002F002046BDE8F84FFFF7B9BADFF858B18F
:10476000DFF858A104F124064FF0203000274FF065
:10477000080C0021C6F807007060306007EB0C00E1
:10478000401AEB5D07F10109212B39D32E2B22D0E2
:104790005C2B2DD02F2B2BD087421CD05AB2B2F1DC
:1047A000FF3F03DC03EB0B0212F8803C574617F87F
:1047B000012B0AB19A42FAD1002A67D1A3F1610212
:1047C000D2B21A2A04EB010238BF203B82F824300F
:1047D00001314F46D5E70620BCF10B0F69D0082107
:1047E0004FF00B0C2E2B4F46C8D062E009F10109A7
:1047F00015F809005C2818BF2F28F7D0002000E02A
:104800000420002942D03178E52904BF0521317008
:1048100084F82F0027682046FFF759FAE8B9E169C4
:10482000384600F0ADF9C0B9206A017889B3C17A81
:1048300001F03F01A171C17A090709D40021725C1E
:10484000435C0A2902D001319342F8D093421AD036
:1048500020460021FFF782F9E0E794F82F1008BB0B
:10486000480722D4A079C00622D560694D446FF371
:104870005F20404400F13001404600F0D7F8A060CE
:104880004FF0203072E794F82F10E9E70620BDE8DA
:10489000F88F94F82F1048074FF0040058BF0520F8
:1048A000BDE8F88F0428F6D003E00020BDE8F88FBB
:1048B0000520BDE8F88F00BFF04E0208844F0208C3
:1048C000F8B502292FD305680C46686988422AD9B1
:1048D0002878032829D0022838D0012823D1286A33
:1048E00004EB540700EB5721284600F049F9A0BB20
:1048F0007E1C6FF35F27E81990F83070286A00EB90
:104900005621284600F03CF938BB6FF35F26A81902
:1049100090F83000E20747EA002108466FF31F30A5
:1049200018BF0809F8BD0120F8BD286A00EBD411B2
:10493000284600F025F980B904F07F0005EB8000DF
:10494000303000F082F820F07040F8BD286A00EBAB
:104950001421284600F014F910B14FF0FF30F8BDD3
:10496000E0B205EB400090F8301090F8310041EAD9
:104970000020F8BD0020704710B50268BAB10023CE
:10498000D15C0133212901D33A29F9D13A2911D136
:104990001178A1F13004092C09D84FF0FF31022B16
:1049A00009D1012C9EBFD1180160214603E04FF0D0
:1049B000FF3100E00021084610BD0000F0B51A4BA1
:1049C00004681D1D0022022A0ED055F8046CA64270
:1049D00007D186682F68B74203D146696F68B7422E
:1049E00012D010350132EEE700221D46022A11D006
:1049F0002E6816B110350132F8E72C600024AC8126
:104A000084684069C5E9014003EB021030F80C3FAF
:104A100011B11BB10020F0BD591C01E04FF48071B1
:104A20000180501CF0BD00BF7C0000200246887E43
:104A3000CB7E127840EA0320032A05D10A7D497D06
:104A4000090641EA024108447047006870470000C7
:104A500092B0FCF797FC00253E4C01952068022699
:104A600040F080502060206800F080500190019854
:104A700039480D95016841F480410160006800F4F7
:104A800080400D9007200C904FF4A8700B960A9070
:104A9000182009904FF48000CDE907604FF4803072
:104AA0000290012001900D9801A8FCF79FFD4FF4A2
:104AB000805011904FF4A05010900F20CDE90E655A
:104AC0000D900DA80521FCF7CDFCFBF7A3FE41F2EC
:104AD0000101884205D1D4F8C00340F48070C4F8C5
:104AE000C003FBF72FFB1D4D1D48691CFBF785FB21
:104AF00000B1FEE71B4C1C4920460022FDF7CEF911
:104B00001A492046FEF7EDF92046FEF727FA4FF442
:104B10009670A8602046FDF7FBFFFBF7F7FA2878B0
:104B200010B10128F6D107E0A868411EA96068B15C
:104B30000A20FBF7E3FCEDE70420FCF7F5FEFEF7A7
:104B400029FE012804D86420FBF7D8FCFBF7B0FC51
:104B5000FBF74DFB40380240007000405C00002035
:104B6000704F020810050020712F02082C00002051
:104B70002AB111F8013B013A00F8013BF9D1704725
:104B8000B0B50546C06A884204BF0020B0BD2846C3
:104B90000C4600F009F900B1B0BD687805F13001AC
:104BA00022460123FFF7F8F8002818BF4FF0FF3422
:104BB000EC6218BF0120B0BD2DE9F041022925D3D8
:104BC000044640690E46884220D9207815460328BD
:104BD0001FD0022834D0012818D1206A06EB5607CE
:104BE00000EB57212046FFF7CBFF002852D107F1F9
:104BF00001086FF35F27E019303016F001062BD063
:104C0000017801F00F0165F30B1126E00220BDE8E9
:104C1000F081206A00EBD6112046FFF7B1FFC8BB38
:104C200006F07F0004EB800000F130063046FFF70D
:104C30000CFF014665F31B01304600F06EF826E0DC
:104C4000206A00EB16212046FFF79AFF10BBF0B256
:104C500004EB400005861AE0E9B201700120E07023
:104C6000206A00EB58212046FFF78AFF90B96FF3C6
:104C70005F2804EB0800303016B1C5F3071105E0DA
:104C8000C5F30321027802F0F00211440170012003
:104C9000E0700020BDE8F081F8B502292ED3056848
:104CA000044668690E46884228D9AAB128461146AA
:104CB0004FF0FF32FFF780FFF8B90DE0D5E904109F
:104CC000821E914205D201312961297941F0010109
:104CD000297187423E4613D220463146FFF7F0FD48
:104CE000074601300ED05FB1012F07D0284631466C
:104CF0000022FFF761FF0028E0D0F8BD0220F8BDD8
:104D00000020F8BD0120F8BD4A830078032803D1B4
:104D1000100E4875100C0875704701607047000050
:104D2000B0B5044600F040F800B1B0BD20780328CB
:104D30002DD1207901282AD104F134004FF4FD71DE
:104D4000FBF7BAF91648254645F8300F4AF65520C4
:104D5000A5F8FE011348C5F8E40155F8201C05F537
:104D6000F470FFF7DAFF55F8241C05F5F670FFF72D
:104D7000D4FF55F8140C2946421C45F8042C15F8AC
:104D80002F0C0123FFF720F8002005F82C0C607889
:104D900000210022FEF7F2FF002818BF0120B0BD5D
:104DA0005252614172724161F8B50446C078F0B167
:104DB000E56A607804F1300631462A46012301276E
:104DC000FFF702F8A0B90027E770216AA069691A05
:104DD00081420DD2A778022F09D3A069314605443C
:104DE00060782A460123FEF7EFFF013FF3E7002733
:104DF0003846F8BDB0B50C4680B10546006868B1CC
:104E0000017859B1C188AA888A4207D14078FEF753
:104E1000D1FFC00702D12968002001E0002109204C
:104E20002160B0BD10B5002821D0114B0022001F19
:104E3000196803E0814203D80A4649680029F9D17C
:104E400052B11368841A9C4204D10068184410605F
:104E5000104602E0506000E0186039B102680B1A99
:104E6000934203D10B681A4402604968416010BD47
:104E700000000020F0B50B30154D20F00701002494
:104E8000144A0FE003688B420BD38B4205D95E1A9C
:104E900043184768C3E9006700E04368136002C035
:104EA00004E0021D10680028ECD12046002802D141
:104EB000286808B10020F0BD064A07481060074A7C
:104EC000121A22F00702C0E9002401202860D7E767
:104ED0000400002000000020D40E0020D01200208A
:104EE000000000000000000001020304060708099A
:104EF0004355454141414143454545494949414162
:104F00004592924F4F4F5555594F554F9C4F9E9F2D
:104F100041494F55A5A5A6A7A8A9AAABACADAEAF70
:104F2000B0B1B2B3B4414141B8B9BABBBCBDBEBF68
:104F3000C0C1C2C3C4C54141C8C9CACBCCCDCECF04
:104F4000D1D145454549494949D9DADBDCDD49DF5D
:104F50004FE14F4F4F4FE6E8E85555555959EEEFA1
:104F6000F0F1F2F3F4F5F6F7F8F9FAFBFCFDFEFFC9
:104F7000892F020875300208E92F020889300208DB
:104F80008D2F0208222A2B2C3A3B3C3D3E3F5B5D95
:104F90007C7F00646F776E6C6F61642E62696E0057
:044FA0004D5343002A
:040000050800018965
:00000001FF
